:020000040800F2
:1000000048080020050100089F0E0008410E000866
:100010009D0E0008990A00088917000800000000DA
:10002000000000000000000000000000F9100008BF
:100030009B0A00080000000031100008A51100080C
:100040001F0100081F0100081F0100081F01000810
:100050001F0100081F0100081F0100081F01000800
:100060001F0100081F0100081F0100081F010008F0
:100070001F0100081F0100081F0100081F010008E0
:100080001F0100081F0100081F0100081F010008D0
:100090001F0100081F0100081F0100081F010008C0
:1000A0001F0100081F0100081F0100081F010008B0
:1000B0001F010008F91100081F0100081F010008B6
:1000C0001F0100081F0100081F0100081F01000890
:1000D0001F0100081F0100081F0100081F01000880
:1000E0001F0100081F0100081F010008DFF810D0E1
:1000F00000F088FC00480047DD1D0008AFF30080D9
:10010000480800200648804706480047FEE7FEE70B
:10011000FEE7FEE7FEE7FEE7FEE7FEE7FEE7FEE7B7
:10012000A9110008ED000008F0B480EA0102D40F24
:100130004200B2EB410F02D20246084611464A0085
:1001400042D0C30DDDB2C1F3C752AD1A202D35DA4E
:10015000C1F3160141F4000204B15242C5F1200678
:1001600002FA06F12A411044B3EBD05F23D0C4B1A8
:10017000012DA0EBC35009DCF0BC4FF0004202EAB5
:10018000C352DBB200F5000000F0EDBA400000F110
:10019000807000EBC350A0F1807040EAD17049003C
:1001A00009E0490841EAC071A0EBC35000F5000026
:1001B000400800EBC350F0BC00F0CCBA6142012211
:1001C00002EB4101001BF6E7F0BC704781F00041F3
:1001D000AAE780F00040A7E780EA010210B502F02C
:1001E0000043400022D04A001FD0010E01EB1261F3
:1001F000C0F35600C2F3560240F4000042F400027D
:10020000A0FB022000047F39140400D0401C50EAF7
:10021000124001D44000491EC2B20C0604EBD010BB
:10022000401C4008802A02D003E0002010BD20F0CE
:100230000100002900DA0020184310BD30B480EA24
:10024000010202F0004530F0004221F0004013D0DE
:1002500090B1C30DD40DC2F31601C0F31600E41A19
:1002600041F4000140F400027D34914201D3641C4A
:1002700000E04900002C02DA30BC002070474FF447
:1002800000000023914201D3891A034340084FEA3A
:100290004101F7D151B1914202D14FF0004105E047
:1002A00002D24FF0010101E06FF0010103EBC450F5
:1002B000284430BC00F04EBA420005D0C0F3C7520B
:1002C0005242914201DC0020704700EBC150704760
:1002D0002DE9FE4F804681EA0300C00F0C460090D6
:1002E00021F0004123F00045B8EB0200A94105D2FE
:1002F0004046214690461C460B46024623F00040ED
:10030000104347D0270DC7F30A00C3F30A510290E8
:10031000401A019040286BDAC3F3130040F4801BAD
:100320000098924620B10023D2EB030A63EB0B0B3B
:1003300001985946C0F14002504600F0DAF90646ED
:100340000D4650465946019A00F0F2F910EB0800AC
:100350006141002487EA115284EAE7731A4340D0CE
:10036000009A62B3019A012A4FEA075215DC001B7A
:1003700061EB02014FF0004202EA0752CDE9004270
:10038000001C41F5801132462B4600F029FA03B0DB
:10039000BDE8F08F40462146F9E7001B61EB020102
:1003A000001C41F5801300185B412018A2F50017CE
:1003B00047EB030140EAD570B6196D4111E06D08B5
:1003C0004FEA360645EAC0754FEA0752001B61EB5B
:1003D0000201001C41F5801149084FEA3000001964
:1003E000514132462B4603B0BDE8F04F00F0E9B969
:1003F0000098012240000023D0EB020263EBE0737F
:10040000009821464FEAE074B8EB000061EB04016C
:10041000E9E783F000435BE781F0004158E72DE90D
:10042000FE4F81EA030404F0004421F000410094EF
:100430004FF0000B23F0004350EA01045ED052EA73
:1004400003045BD0C3F30A54C1F30A552C44A4F24D
:10045000F3340194A0FB0254C1F3130141F4801161
:10046000C3F3130343F4801301FB024400FB034E68
:10047000840A970A44EA815447EA8357A4FB076831
:1004800002958D0A05FB07854FEA932C04FB0C545B
:100490002705029D4FEA065847EA1637B5EB0805CF
:1004A0006EEB070C870E920E47EA811742EA831221
:1004B000A7FB0201B6EB0B0164EB00042B0D43EA32
:1004C0000C335E1844EB1C50DA465146E7FB020140
:1004D000C5F313044FEA0B3343EA14534FEA0432D3
:1004E000019C43EA0603A4F10C040294009CCDE9AC
:1004F00000B400F075F903B0BDE8F08F00200146AC
:10050000F9E72DE9F04D81EA030404F0004B21F0F6
:10051000004514464FF0000A23F0004150EA05025E
:1005200020D054EA01021DD0C5F30A570246C5F394
:100530001303C1F31300C1F30A5640F4801543F4CA
:100540008013A7EB0608101BD64608F2FD3873EBA4
:10055000050002D308F1010801E092185B41B8F1EF
:10056000000F03DA00200146BDE8F08D00204FF4B3
:100570008011064684460EE0171B73EB050705D372
:10058000121B63EB050306434CEA010C49084FEAD2
:10059000300092185B4150EA0107EDD152EA0300A6
:1005A00012D082EA040083EA0501084305D0101B3B
:1005B000AB4106D20122002306E000224FF00043A7
:1005C00002E06FF0010253101AEB06004CEB0851E9
:1005D00010EB0A0041EB0B01BDE8F04D00F0F1B863
:1005E000C10F80EAE0700844CA079623002100F09A
:1005F000BAB896230022114600F0B5B800F00042C8
:1006000020F00040C10DC0F3160040F400007F2927
:1006100001DA00207047962903DCC1F19601C84039
:1006200001E096398840002AF4D04042704720F01B
:100630000040C10DC0F3160040F400007F2901DA2C
:1006400000207047962903DCC1F19601C84070472D
:1006500096398840704770B5C1F30A5201F00045E1
:100660000024C1F3130140F2FF3341F480119A4298
:1006700001DA002070BD40F233439A42A2F23342C5
:1006800003DC524200F044F800E090402C43F1D0EB
:10069000404270BD00F0004230F000400AD0C10D71
:1006A00001F56071C0F3160042EA0151C20840072B
:1006B0001143704700200146704701F0004330B4F9
:1006C00021F0004150EA010206D00A0DA2F5607245
:1006D000C1F31301002A02DC30BC00207047440F34
:1006E00044EAC104C100E01830BC00EBC25000F085
:1006F00031B8202A04DB203A00FA02F100207047CA
:100700009140C2F1200320FA03F31943904070474F
:10071000202A04DB203A21FA02F00021704721FA56
:1007200002F3D040C2F120029140084319467047BD
:10073000202A06DBCB17203A41FA02F043EAE073A5
:1007400006E041FA02F3D040C2F120029140084392
:10075000194670470029A8BF7047401C490008BFD0
:1007600020F00100704710B4B0FA80FC00FA0CF0E1
:1007700050EA010404BF10BC704749B1CCF1200419
:1007800021FA04F411FA0CF118BF012121430843A6
:10079000A3EB0C01CB1D4FEA00614FEA102042BFD2
:1007A000002010BC704700EBC35010440029A4BFC8
:1007B00010BC7047401C490008BF20F0010010BC6D
:1007C000704710B5141E73F1000408DA401C41F1A3
:1007D000000192185B411A4301D120F0010010BDC5
:1007E0002DE9F04D92469B4611B1B1FA81F202E03B
:1007F000B0FA80F220329046FFF77BFF04460F46A6
:1008000040EA0A0041EA0B0153465A46084313D016
:10081000114653EA010019D0C8F140025046FFF7D3
:1008200077FF05460E46504659464246FFF761FFA0
:10083000084305D0012004E020463946BDE8F08D8C
:100840000020054346EAE0762C4337430A986305C7
:10085000E40AA0EB08000022FD0A44EA47540A30EB
:1008600002D500200146E9E7010510196941DDE9DB
:10087000084500196941BDE8F04DA2E72DE9F04DAA
:1008800000231A461B1A8A4103DB00200146BDE8FB
:10089000F08DC1F30A52C1F3130141F480154FF0FA
:1008A000000BD10702D100186D41521E00270446EB
:1008B00040F2FF11384601EB620A3E46804602468E
:1008C00000204FF48011FFF723FFC2197141BB18BC
:1008D00046EB0100B4EB030C75EB000C04D3E41AF7
:1008E00065EB000517460E46241908F101006D411D
:1008F00080463428E3DDF91946EB0600091BA841C0
:1009000003D24FF0FF32134601E0002213461BEBE7
:10091000070046EB0A51BDE8F04DFFF752BF2DE945
:10092000FE4FC3F30A5701F000450024C1F30A56F5
:10093000C3F31303C1F3130143F4801312EB020A50
:10094000A64641F48011009543EB030CA7F1010B7F
:1009500016E0B0EB0A0061EB0C01071E71F1000715
:1009600007DA4FF00008D0EB080085F0004568EB8F
:100970000101171A73EB0107EBD3761E00184941EA
:100980005E45F6DA50EA010209D0CDE900E5002221
:1009900013460296FFF724FF03B0BDE8F08F204610
:1009A0000099F9E730B5041E71F1000404DB4FF043
:1009B0000044404264EB0101141E73F1000405DBA6
:1009C0001C464FF00043524263EB04038B4208BFC6
:1009D000824230BD30B5041E71F1000404DB4FF0DB
:1009E0000044404264EB0101141E73F1000405DB76
:1009F0001C464FF00043524263EB0403994208BF88
:100A0000904230BD064C074D06E0E06840F001031F
:100A100094E8070098471034AC42F6D3FFF76AFB1E
:100A2000202700084027000870B521F00043034349
:100A30000CD0C1F30A550024D5EB040564EB040384
:100A4000D617AD1AB34102DB0020014670BD201855
:100A500041EB025170BD000038B50121082000F0C3
:100A6000F5FA0C4C4FF40061204600F0E7F921152F
:100A7000204600F0E3F94FF44061ADF80010012189
:100A80008DF8021014218DF803106946204600F0FD
:100A90005BF938BD000C0140FEE770472DE9F05FBF
:100AA0000C46904607460146FFF796FB0546214651
:100AB0000846FFF791FB2946FFF736FBFFF7EAFDF3
:100AC00001F0B6F900227B4BFFF71BFDFFF7F5FDA8
:100AD00006462046FFF7DEFD04460D463846FFF782
:100AE000D9FD22462B4600F0F3FF04460D46404652
:100AF000FFF7D0FD22462B46FFF7EAFBFFF7DDFDAF
:100B000000F0B6F9DFF8B08105464146FFF796FBE5
:100B1000FFF7C0FD01F0AAF80022684BFFF7D8FBF1
:100B2000FFF799FD0446FFF75BFD07464146FFF7D7
:100B300053FB2946FFF74AFBDFF884914946FFF74C
:100B40004BFB00F0C5F8DFF87CA15146FFF744FBF2
:100B50003146FFF741FB834638464FF07E57394612
:100B6000FFF734FB4146FFF737FB2946FFF731FB20
:100B70004946FFF731FB00F0ABF85146FFF72CFB7D
:100B80003146FFF729FB804659463846FFF71EFBE2
:100B90004146FFF71BFB4FF0FF31072C5CD2DFE82B
:100BA00004F05B04122230404D00FFF785FB044641
:100BB00041465846FFF7B8FA2146FFF7B5FA064610
:100BC000204641460BE0FFF777FB04465946FFF706
:100BD000ABFA064641465846FFF7A6FA2146FFF70C
:100BE000A3FA05463BE0FFF767FB06464146584639
:100BF000FFF79AFA3146FFF797FA05463046414625
:100C00000BE0FFF759FB06465946FFF78DFA0546FC
:100C100041465846FFF788FA3146FFF785FA044601
:100C20001DE0FFF749FB05464146FFF77DFA064602
:100C300041465846FFF778FA2946EEE7FFF73CFBB6
:100C4000054641465846FFF76FFA2946FFF76CFA0A
:100C5000064628465946E0E70026354634461A4FF0
:100C600030463946FFF7B8FA184E3146FFF7E6FA34
:100C7000FFF7DDFCC1B2002000F0C8F93946284674
:100C8000FFF7AAFA3146FFF7D9FAFFF7D0FCC1B255
:100C9000012000F0BBF939462046FFF79DFA3146A6
:100CA000FFF7CCFAFFF7C3FCBDE8F05FC1B202204A
:100CB00000F0ACB900002840920A863F0000F03FE7
:100CC00035FA8E3CD7B3DD3F0000C84200004041FA
:100CD00070B505461A49FFF77FFA0446FFF78EFC08
:100CE00015F1FF4F00D3401EFFF77AFC2146FFF7B6
:100CF00070FA0921FFF7E0FA0546FFF798FCC0F308
:100D000008042046FFF775FC2946FFF762FA0546FE
:100D10000C4850F8246000EB840041682846FFF737
:100D20005BFA044629464FF07E50FFF74FFA3146F2
:100D3000FFF752FA2146BDE87040FFF7F5B9000011
:100D400083F9223E7C1E0008F0B5CC78002204F026
:100D50000F03E40601D58C7823430C784FF00F0C79
:100D600014F0FF0F4FF0010E1BD005680E880EFA2D
:100D700002F42640A64210D196000CFA06F725EAA6
:100D8000070703FA06F5CE783D43282E02D0482EF9
:100D900002D002E0446100E00461521C082AE5D35D
:100DA00005600A88FF2A1CD94468002202F108065F
:100DB0000EFA06F50E882E40AE420ED196000CFAC1
:100DC00006F7BC4303FA06F7CE783C43282E00D141
:100DD0004561CE78482E00D10561521C082AE5D322
:100DE0004460F0BDF0B5144C002801DAE36900E07E
:100DF0006368450D2E0185B2C0F30157B540C0F3BD
:100E00000342032F05D0C6020AD503269640B343FA
:100E100007E023F07062636823F07063636002E0B0
:100E2000AB4343F0706201B12A43002801DAE2616A
:100E3000F0BD6260F0BD000000000140016170473C
:100E4000FEE7000008B50121082000F0FFF84FF48C
:100E50000070ADF8000001208DF8020010208DF820
:100E6000030069460148FFF76FFF08BD000C014011
:100E700010B5FFF70FFC0022064B00F065FFFFF7EF
:100E80001CFC10F1FF4F04D3BDE810400249FFF7EE
:100E90004BB910BD008076400000B443FEE77047B8
:100EA00030B50F23C27801780125F2B1144A1268D7
:100EB00001F1E02102F4E062C2F5E062120AC2F13F
:100EC0000404D3404278A24084781C401443220199
:100ED00081F80024007800F01F018D404009800057
:100EE00000F1E020C0F8005130BD01F01F00854046
:100EF0004809800000F1E020C0F8805130BD0000BA
:100F00000CED00E000210160C16101624160C1603F
:100F100081600161416181617047000030B501214C
:100F200089B0C80200F092F80121042000F08EF888
:100F30004FF4E060ADF81C0003208DF81E0018206F
:100F40008DF81F0007A92E48FFF7FEFE1120ADF80F
:100F5000100000246320ADF814002A4DADF81240B3
:100F6000ADF816408DF8184004A9284600F0ECFAB8
:100F70006020ADF800000120ADF80200ADF8084097
:100F80000820ADF80440ADF80A00ADF80C40ADF80B
:100F90000640ADF80E406946284600F0F1F9694672
:100FA000284600F03DFA6946284600F089FA0421F7
:100FB000284600F0DFF90421284600F027FA042132
:100FC000284600F077FA0821284600F019FA08218F
:100FD000284600F065FA0821284600F0AFFA012102
:100FE000284600F0A8F90121284600F08DF90121DA
:100FF000284600F096F90448FFF784FF09B030BD99
:1010000000080140002C014024000020491E89B244
:1010100028B1012806D0022807D1044804E003487B
:10102000083801E00148001F018070473C2C014056
:1010300070470000044A0029D16901D0014300E053
:101040008143D1617047000000100240044A00292A
:10105000916901D0014300E0814391617047000034
:101060000010024030B5204A5168204B11F00C01AD
:1010700003D0042901D0082901D0036012E051688F
:10108000536801F470114FF0020413F4803F04EB35
:10109000914102D053689B0301D5154B00E0134BDF
:1010A0005943016051680F2303EA1111114B5C5C35
:1010B0000168E14041605468072505EA14241C5D7D
:1010C00021FA04F48460546805EAD4241B5DD940F5
:1010D000C1605268032303EA9232064B1B1F9A5CDD
:1010E000B1FBF2F1016130BD0010024000127A0044
:1010F00000093D0004000020704700000CB50022EC
:10110000264800920192016841F4803101604FF459
:10111000A063016801F4003101910099491C00911C
:10112000019911B900999942F3D10168890333D526
:10113000012101911A490A6842F010020A600A6806
:1011400022F007020A600A6842F002020A6041685F
:10115000416041684160416841F48061416041689B
:1011600021F47C114160416841F4E811416001685B
:1011700041F08071016001688901FCD5416821F06E
:1011800003014160416841F0020141604168C1F3DF
:1011900081010229FAD10CBD01920CBD0010024060
:1011A00000200240704700000F4810B5016841F070
:1011B0000101016041680D4A1140416001680C4A1B
:1011C00011400160016821F480210160416821F42F
:1011D000FE0141604FF41F018160FFF78FFF054959
:1011E0004FF00060086010BD001002400000FFF8E2
:1011F000FFFFF6FE08ED00E010B5234C012120466C
:1012000000F0A4F800283ED00121204600F086F826
:101210001E4B5868B0F57A7F01D30020586000203B
:1012200000F0F6F91879C00702D1012000F0F0F9BA
:1012300058680521B0FBF1F201FB120010B9022041
:1012400000F0E6F958680A21B0FBF1F201FB120048
:1012500010B9032000F0DCF958681421B0FBF1F25A
:1012600001FB120010B9042000F0D2F958683221B5
:10127000B0FBF1F201FB120010B9052000F0C8F933
:101280005868401C586010BD000400401800002041
:101290007FB50D46044601210220FFF7CBFE04EB8B
:1012A0004400C0EBC4104FF0FF3101EBC0006D1ED5
:1012B000ADF80050ADF804000024114DADF8064023
:1012C000ADF802406946284600F03EF90122114679
:1012D000284600F047F81D208DF80C0001218DF8FC
:1012E0000D1002208DF80E008DF80F1003A8FFF7E7
:1012F000D7FD0121284600F014F8024804707FBD94
:1013000000040040180000200029018802D041F0AC
:10131000800101E021F0800101807047C943018212
:1013200070470029018802D041F0010101E021F05D
:10133000010101807047002930F8441F02D041F4B8
:10134000004101E0C1F30E01018070470246002018
:10135000138A92890B4202EA010202D0002A00D0CD
:1013600001207047002A828901D00A4300E08A43A5
:1013700082817047028B22F004020A430283704785
:1013800030B5028C22F001020284028C8388048B27
:1013900022F0020224F073050C882C430D891543BA
:1013A0004A882A43114DA8420BD0114DA84208D0BB
:1013B000104DA84205D0104DA84202D00F4DA842B2
:1013C0000DD122F008054A8923F440732A4322F004
:1013D00004058A882A438D891D43CB892B4383804A
:1013E0000483C9888186028430BD0000002C01403E
:1013F00000340140004001400044014000480140E9
:10140000028B22F008020A4302837047028B4FF6D8
:10141000FF7322F4806203EA0121114301837047C4
:1014200070B5028C22F010020284028C8388048B37
:101430000D8824F4E6464FF6FF7404EA052535438B
:101440000E8922F0200204EA061616434A8804EAAE
:1014500002123243104EB04202D0104EB04215D1AB
:1014600022F080064A8923F4406304EA02123243E0
:1014700022F040068A8804EA021232438E8904EA86
:1014800086061E43CB8904EA8303334383800583A6
:10149000C9880187028470BD002C014000340140DE
:1014A000028B4FF6FF7322F4006203EA012111431D
:1014B00001837047828B22F004020A4382837047C3
:1014C00070B5028C22F480720284028C8388848B33
:1014D0000D8824F0730425430E894FF6FF7422F41F
:1014E000007204EA062616434A8804EA02223243BE
:1014F000104EB04202D0104EB04215D122F4006618
:101500004A8923F4405304EA0222324322F48066DB
:101510008A8804EA022232438E8904EA06161E43B0
:10152000CB8904EA0313334383808583C988818789
:10153000028470BD002C014000340140828B22F0F7
:1015400008020A438283704730B502881B4C1C4D49
:10155000A0420DD0A8420BD0B0F1804F08D0194B5B
:10156000984205D0184B984202D0184B984203D1AC
:1015700022F070034A881A43154B984206D0154B47
:10158000984203D022F44073CA881A4302808A88A2
:1015900082850A880285A0420AD0A84208D00E4A55
:1015A000904205D00D4A904202D00D4A904201D19E
:1015B000097A01860121818230BD0000002C0140A2
:1015C000003401400004004000080040000C0040CE
:1015D0000010004000140040004001400044014061
:1015E000004801400121814003480078014201D0B8
:1015F0000120704700207047180000200121814021
:10160000024802788A4302707047000018000020E8
:1016100001218140024802781143017070470000A7
:101620001800002070B50446012186B08803FFF73A
:101630000DFD01210846FFF709FD01210820FFF7F4
:1016400005FD4020ADF8100003258DF8125018203C
:10165000194E8DF8130004A93046FFF775FB802062
:10166000ADF810008DF8125004208DF8130004A975
:101670003046FFF769FB01210420FFF7B3FB002090
:101680000094ADF80800ADF804000C210B4CADF847
:101690000600ADF80A10ADF80C006946204600F0CF
:1016A0001DF840F2FF31204600F00AF801212046E3
:1016B00000F009F806B070BD000C01400038014090
:1016C000C943018070470029818902D041F400514B
:1016D00001E021F4005181817047000030B50446DB
:1016E000008A85B00D464CF6FF710840E988014339
:1016F0002182A0894EF6F3110840A9882A89114356
:101700006A8902431143A181A08A4FF6FF41084034
:10171000A9890143A1826846FFF7A4FC19488442C5
:1017200001D1039800E00298A189090400EBC001EF
:1017300001EB0010296801D5490000E08900B0FBE9
:10174000F1F06422B0FBF2F109010B096FF018050A
:101750006B4300EB8300A3891D044FF0320306D5D1
:1017600003EBC000B0FBF2F000F0070005E003EB74
:101770000010B0FBF2F000F00F000843208105B02C
:1017800030BD000000380140FEE7490050EAC120AA
:1017900018BF04204A0D18BF40F0010040F2FF724C
:1017A000B2EB515F08BF40F00200012808BF0520DE
:1017B00070472DE9F0414F1E00EBC7010446D1E907
:1017C000000115461E4637F006020DD02A46334664
:1017D000FEF725FE7F1E04EBC703D3E90023FEF7C7
:1017E00077FD37F00602F1D1022F25D0042F13D058
:1017F000062F18BFBDE8F0812A463346FEF70FFEDC
:10180000D4E90A23FEF764FD2A463346FEF707FEB5
:10181000D4E90823FEF75CFD2A463346FEF7FFFDB8
:10182000D4E90623FEF754FD2A463346FEF7F7FDBA
:10183000D4E90423FEF74CFD2A463346FEF7EFFDBC
:10184000D4E90223FEF744FD2A463346FEF7E7FDBE
:10185000D4E90023BDE8F041FEF73ABD0122FFF7CD
:10186000E3B8FEF735BD0022134610461146FEF7D9
:1018700048BE0000024A00201107FFF7D5B800005B
:1018800001FDFFFF02E008C8121F08C1002AFAD1BB
:1018900070477047002001E001C1121F002AFBD1F0
:1018A00070470000014908607047000020000020D8
:1018B0002DE9F84F04460D4621F000400091734990
:1018C000814211DC7249884201DC06D12CB12046EC
:1018D0002946BDE8F84FFFF7C1BF6E48002DCCBFC9
:1018E0006D496E49BDE8F88F6D49814211DD6D4942
:1018F0008142D8BF4FF0FF366DDD20462946FFF705
:1019000044FF042808BFFFF7B5FF20462946BDE87D
:10191000F88F6549654F25F00045814233DD644904
:10192000814219DD002632464FF080432046294689
:10193000FEF7CEFC80468A46012220462946FFF764
:1019400073F800223B46FEF764FD42465346FEF71D
:10195000D8FD04460D463EE001260022BA463B462D
:1019600020462946FEF7B4FC80460F460022534627
:1019700020462946FEF74DFD42463B46FEF7C1FD97
:1019800004460D4627E04B4981421BDDDFF828A1C4
:1019900002260022534620462946FEF740FD00223B
:1019A0003B46FEF795FC80460F46002253462046F4
:1019B0002946FEF72EFD42463B46FEF7A2FD0446B1
:1019C0000D4608E0032622462B4600203B49FEF741
:1019D00098FD04460D4622462B4610461946FEF752
:1019E0001EFD8B46824602460B46FEF718FD074653
:1019F0000246334888460B4606217844FFF7D9FE55
:101A000052465B46FEF70BFD82462E488B463A4611
:101A1000434605217844FFF7CCFE3A464346FEF79D
:101A2000FEFC02460B46002E504659460CDAFEF7E5
:101A30004FFC22462B46FEF7F2FC01B022462B4615
:101A4000BDE8F04FFEF7E8BCFEF742FC22462B460D
:101A5000FEF7E5FC1C4A7A4402EBC603D3E90023F7
:101A6000FEF7D7FC22462B46FEF7D3FC174A7A44F2
:101A700002EBC603D3E90023FEF7CEFC009A002A4E
:101A8000B8BF81F00041BDE8F88F000000001044AD
:101A90000000F07F182D4454FB21F93FFB21F9BFD2
:101AA0000000DC3F0000203E0000F33F0000F03F5C
:101AB0000000E63F008003400000F83F0000F0BF58
:101AC000EA0C0000A80C0000460C00000E0C000000
:101AD0002DE9F04D9446CCF1000423F000464CEA89
:101AE0000404594F46EAD4749A46884621F00042CD
:101AF000BC4206D8454240EA050442EAD474BC42DE
:101B000004D9BDE8F04D6246FFF7ABBEAAF14055DF
:101B1000A5F17F6555EA0C040BD0022404EAAA74EF
:101B20004A4DDFF82CE144EAD87452EA000B04D0A5
:101B30000CE0BDE8F04DFFF7BBBE002C14BF012C3C
:101B4000BDE8F08D022C30D0032C32D056EA0C0BBD
:101B50000AD0BE4220D1BA4209D126F0804622F0F6
:101B600080423346114617E000291ADB25E0DFF8F2
:101B7000E4B0FB44002C04BFDBE90001BDE8F08DBC
:101B8000012C02BFDBE9000181F00041BDE8F08DCE
:101B9000022C0AD0032C0CD0BA4212D1B8F1000F9B
:101BA0000BDA2A482C49BDE8F08D28462B49BDE8C0
:101BB000F08D28467146BDE8F08D24482849BDE8DF
:101BC000F08D921B12153C2AC4BF204F244E10DC0E
:101BD000BAF1000FBEBF12F13C0F00273E4608DBF2
:101BE0006246FEF78EFC21F00041FFF761FE0746DA
:101BF0000E4694B1012C08BF86F000460DD0194A5C
:101C0000194B022C3846314615D0FEF702FC2A4605
:101C1000BDE8F04D114BFEF7FCBB002213463846E1
:101C20003146FEF7BFFE04BF0220FFF73BFE3846F9
:101C30003146BDE8F08DFEF7ECFB2A46BDE8F04DDD
:101C4000064BFEF7E9BB00000000F07F182D44545E
:101C5000FB2109C0A20B0000FB21F9BFFB210940B9
:101C6000FB21F93F075C143326A6A13C2DE9F04186
:101C7000C1F30A52A2F2FF362F4A304B0D460446FA
:101C8000142E2FDA002E12DAFEF722FB0022134662
:101C9000FEF7A0FE4CD2002DA4BF0024254647DA53
:101CA00025F00040204318BF254D41D018E0DFF853
:101CB00094C02CFA06F705EA070C5CEA040C08BF8E
:101CC000BDE8F081FEF704FB00221346FEF782FE1A
:101CD0002ED2002D03DA4FF48010F0400544BD43AE
:101CE000002425E0332EC8BFBDE8F081A6F1140C16
:101CF0004FF0FF3727FA0CF73C4208BFBDE8F081F0
:101D0000FEF78AFB00221346FEF764FE10D2002D78
:101D10000DDA142E08BF6D1C09D0C6F13400012164
:101D200001FA00F02044A04238BF6D1C0446BC43B9
:101D300029462046BDE8F0819C7500883CE4377E4A
:101D40000000F0BFFFFF0F0070B514461D460E46A1
:101D5000002814BF01210021314321F00041C1F1CD
:101D60007F6101F1E041C90F16D1002C14BF0121A0
:101D70000021294321F00041C1F17F6101F1E041DF
:101D8000C90F09D11449B1EB460F08BF00281CD078
:101D9000690008BF002C18D03146FEF7C0FD02468E
:101DA00040F2FF7030EA11500DD0F017B0EBE17F38
:101DB00009D0084665F31E0084460B46204661465E
:101DC000FEF72AFB0246104670BD0120FFF76AFDB0
:101DD000BDE87040FFF747BD0000E0FFFFF732F8B5
:101DE00048210A20FFF754FAFEF736FEFFF796F86F
:101DF0004FF4E130FFF716FC0C4C4FF07E550220FB
:101E0000FFF7F0FB0128FAD12068FEF743FC0246F9
:101E10000B4600210220FEF741FE29462068FEF70E
:101E200083F920600220FFF7E9FBE8E714000020B7
:101E30002DE9F04106460F46FEF720FD041E0D4633
:101E400018BF0120284320F00040C0F17F6000F15E
:101E5000E040C00F0ED0301C18BF0120384320F0E6
:101E60000040C0F17F6000F1E040C00F04BF0120DE
:101E7000FFF718FD20462946BDE8F081000000006C
:101E8000920E493CB10AC93C2BC3163D2EFB483D7E
:101E9000752B7B3D04A9963D80B6AF3D36BDC83D50
:101EA0002FBCE13D73B2FA3D87CF093E8340163E19
:101EB000B5AB223EA2102F3ECF6E3B3EC2C5473E81
:101EC0000115543E135C603E7F9A6C3ECCCF783E49
:101ED000C07D823E938E883E229A8E3E32A0943EF2
:101EE00086A09A3EE59AA03E128FA63ED47CAC3ED8
:101EF000EF63B23E2A44B83E491DBE3E15EFC33ED5
:101F000053B9C93ECA7BCF3E4136D53E80E8DA3E62
:101F10004F92E03E7533E63EBBCBEB3EEA5AF13ED4
:101F2000CBE0F63E275DFC3EE4E7003F3D9C033FEF
:101F3000824B063F9BF5083F6B9A0B3FDA390E3F09
:101F4000CDD3103F2A68133FD9F6153FC07F183F05
:101F5000C6021B3FD17F1D3FCBF61F3F9967223F33
:101F600025D2243F5636273F1594293F4AEB2B3F75
:101F7000DE3B2E3FBB85303FC9C8323FF304353FBF
:101F8000233A373F4268393F3B8F3B3FF9AE3D3FF5
:101F900067C73F3F70D8413F01E2433F03E4453FFD
:101FA00065DE473F12D1493FF8BB4B3F029F4D3F93
:101FB000207A4F3F3D4D513F4918533F31DB543F4D
:101FC000E595563F5348583F6AF2593F1A945B3F94
:101FD000532D5D3F05BE5E3F2146603F97C5613F83
:101FE0005A3C633F59AA643F880F663FD86B673FEE
:101FF0003CBF683FA7096A3F0C4B6B3F5E836C3F59
:1020000093B26D3F9ED86E3F73F56F3F0809713FE5
:102010005213723F4714733FDD0B743F0BFA743F4A
:10202000C6DE753F07BA763FC58B773FF853783FDA
:102030009812793F9DC7793F02737A3FBE147B3F68
:10204000CDAC7B3F283B7C3FC9BF7C3FAC3A7D3F5A
:10205000CCAB7D3F23137E3FB0707E3F6DC47E3F8F
:10206000580E7F3F6D4E7F3FAB847F3F0FB17F3F68
:1020700097D37F3F43EC7F3F11FB7F3F0000803FC2
:1020800011FB7F3F43EC7F3F97D37F3F0FB17F3FF3
:10209000AB847F3F6D4E7F3F580E7F3F6DC47E3FC8
:1020A000B0707E3F23137E3FCCAB7D3FAC3A7D3F8B
:1020B000C9BF7C3F283B7C3FCDAC7B3FBE147B3F00
:1020C00002737A3F9DC7793F9812793FF853783F62
:1020D000C58B773F07BA763FC6DE753F0BFA743F74
:1020E000DD0B743F4714733F5213723F0809713F71
:1020F00073F56F3F9ED86E3F93B26D3F5E836C3F2A
:102100000C4B6B3FA7096A3F3CBF683FD86B673FEA
:10211000880F663F59AA643F5A3C633F97C5613FA9
:102120002146603F05BE5E3F532D5D3F1A945B3FE5
:102130006AF2593F5348583FE595563F31DB543FCB
:102140004918533F3D4D513F207A4F3F029F4D3F2D
:10215000F8BB4B3F12D1493F65DE473F03E4453FA3
:1021600001E2433F70D8413F67C73F3FF9AE3D3F73
:102170003B8F3B3F4268393F233A373FF304353FBB
:10218000C9C8323FBB85303FDE3B2E3F4AEB2B3F79
:102190001594293F5636273F25D2243F9967223F81
:1021A000CBF61F3FD17F1D3FC6021B3FC07F183FAC
:1021B000D9F6153F2A68133FCDD3103FDA390E3FC9
:1021C0006B9A0B3F9BF5083F824B063F3D9C033FBC
:1021D000E4E7003F275DFC3ECBE0F63EEA5AF13EE5
:1021E000BBCBEB3E7533E63E4F92E03E80E8DA3EF5
:1021F0004136D53ECA7BCF3E53B9C93E15EFC33EEB
:10220000491DBE3E2A44B83EEF63B23ED47CAC3E8C
:10221000128FA63EE59AA03E86A09A3E32A0943E3A
:10222000229A8E3E938E883EC07D823ECCCF783EF1
:102230007F9A6C3E135C603E0115543EC2C5473E1A
:10224000CF6E3B3EA2102F3EB5AB223E8340163EE2
:1022500087CF093E73B2FA3D2FBCE13D36BDC83D84
:1022600080B6AF3D04A9963D752B7B3D2EFB483DC6
:102270002BC3163DB10AC93C920E493C0000000038
:10228000920E49BCB10AC9BC2BC316BD2EFB48BD7A
:10229000752B7BBD04A996BD80B6AFBD36BDC8BD4C
:1022A0002FBCE1BD73B2FABD87CF09BE834016BE15
:1022B000B5AB22BEA2102FBECF6E3BBEC2C547BE7D
:1022C000011554BE135C60BE7F9A6CBECCCF78BE45
:1022D000C07D82BE938E88BE229A8EBE32A094BEEE
:1022E00086A09ABEE59AA0BE128FA6BED47CACBED4
:1022F000EF63B2BE2A44B8BE491DBEBE15EFC3BED1
:1023000053B9C9BECA7BCFBE4136D5BE80E8DABE5E
:102310004F92E0BE7533E6BEBBCBEBBEEA5AF1BED0
:10232000CBE0F6BE275DFCBEE4E700BF3D9C03BFEB
:10233000824B06BF9BF508BF6B9A0BBFDA390EBF05
:10234000CDD310BF2A6813BFD9F615BFC07F18BF01
:10235000C6021BBFD17F1DBFCBF61FBF996722BF2F
:1023600025D224BF563627BF159429BF4AEB2BBF71
:10237000DE3B2EBFBB8530BFC9C832BFF30435BFBB
:10238000233A37BF426839BF3B8F3BBFF9AE3DBFF1
:1023900067C73FBF70D841BF01E243BF03E445BFF9
:1023A00065DE47BF12D149BFF8BB4BBF029F4DBF8F
:1023B000207A4FBF3D4D51BF491853BF31DB54BF49
:1023C000E59556BF534858BF6AF259BF1A945BBF90
:1023D000532D5DBF05BE5EBF214660BF97C561BF7F
:1023E0005A3C63BF59AA64BF880F66BFD86B67BFEA
:1023F0003CBF68BFA7096ABF0C4B6BBF5E836CBF55
:1024000093B26DBF9ED86EBF73F56FBF080971BFE1
:10241000521372BF471473BFDD0B74BF0BFA74BF46
:10242000C6DE75BF07BA76BFC58B77BFF85378BFD6
:10243000981279BF9DC779BF02737ABFBE147BBF64
:10244000CDAC7BBF283B7CBFC9BF7CBFAC3A7DBF56
:10245000CCAB7DBF23137EBFB0707EBF6DC47EBF8B
:10246000580E7FBF6D4E7FBFAB847FBF0FB17FBF64
:1024700097D37FBF43EC7FBF11FB7FBF000080BFBE
:1024800011FB7FBF43EC7FBF97D37FBF0FB17FBFEF
:10249000AB847FBF6D4E7FBF580E7FBF6DC47EBFC4
:1024A000B0707EBF23137EBFCCAB7DBFAC3A7DBF87
:1024B000C9BF7CBF283B7CBFCDAC7BBFBE147BBFFC
:1024C00002737ABF9DC779BF981279BFF85378BF5E
:1024D000C58B77BF07BA76BFC6DE75BF0BFA74BF70
:1024E000DD0B74BF471473BF521372BF080971BF6D
:1024F00073F56FBF9ED86EBF93B26DBF5E836CBF26
:102500000C4B6BBFA7096ABF3CBF68BFD86B67BFE6
:10251000880F66BF59AA64BF5A3C63BF97C561BFA5
:10252000214660BF05BE5EBF532D5DBF1A945BBFE1
:102530006AF259BF534858BFE59556BF31DB54BFC7
:10254000491853BF3D4D51BF207A4FBF029F4DBF29
:10255000F8BB4BBF12D149BF65DE47BF03E445BF9F
:1025600001E243BF70D841BF67C73FBFF9AE3DBF6F
:102570003B8F3BBF426839BF233A37BFF30435BFB7
:10258000C9C832BFBB8530BFDE3B2EBF4AEB2BBF75
:10259000159429BF563627BF25D224BF996722BF7D
:1025A000CBF61FBFD17F1DBFC6021BBFC07F18BFA8
:1025B000D9F615BF2A6813BFCDD310BFDA390EBFC5
:1025C0006B9A0BBF9BF508BF824B06BF3D9C03BFB8
:1025D000E4E700BF275DFCBECBE0F6BEEA5AF1BEE1
:1025E000BBCBEBBE7533E6BE4F92E0BE80E8DABEF1
:1025F0004136D5BECA7BCFBE53B9C9BE15EFC3BEE7
:10260000491DBEBE2A44B8BEEF63B2BED47CACBE88
:10261000128FA6BEE59AA0BE86A09ABE32A094BE36
:10262000229A8EBE938E88BEC07D82BECCCF78BEED
:102630007F9A6CBE135C60BE011554BEC2C547BE16
:10264000CF6E3BBEA2102FBEB5AB22BE834016BEDE
:1026500087CF09BE73B2FABD2FBCE1BD36BDC8BD80
:1026600080B6AFBD04A996BD752B7BBD2EFB48BDC2
:102670002BC316BDB10AC9BC920E49BC0000008034
:102680004FBB610567ACDD3F182D4454FB21E93F8A
:102690009BF681D20B73EF3F182D4454FB21F93F79
:1026A000E2652F227F2B7A3C075C143326A6813CFF
:1026B000BDCBF07A8807703C075C143326A6913CAA
:1026C000C4EB98999999C9BF711623FEC671BCBF16
:1026D0006D9A74AFF2B0B3BF9AFDDE522DDEADBF7E
:1026E0002F6C6A2C44B4A2BF0D5555555555D53F96
:1026F000FF8300922449C23F6E204CC5CD45B73FB1
:10270000513DD0A0660DB13FEB0D76244B7BA93F28
:1027100011DA22E33AAD903F000000000000000013
:102720004027000800000020240000008418000852
:1027300064270008240000202408000094180008E2
:102740000204060800000000010203040102030461
:10275000060708090000803F00000000000000009C
:042760000000000075
:04000005080000ED02
:00000001FF
